:100000000C941A040C9442040C9442040C94420480
:100010000C9442040C9442040C9442040C94420448
:100020000C9442040C9442040C9421110C949011F1
:100030000C9442040C9442040C9442040C94420428
:100040000C9442040C9442040C9442040C94420418
:100050000C9442040C9442040C9442040C94C21379
:100060000C9442040C9442040C9442040C944204F8
:100070000C9442040C9442040C9442040C944204E8
:100080000C9442040C9442040C9442040C944204D8
:100090000C9442040C9442040C9442040C944204C8
:1000A0000C9442040C9442040C944204456C646524
:1000B0007200506C616E74004C696768746E696E92
:1000C0006700466972650045617274680057696E21
:1000D000640057617465720053706972697400F04E
:1000E000F89C8E8783878E9CF8F00000FEFF030348
:1000F000030303070EFCF80000FEFF0303030303E2
:10010000070EFCF80000FFFF00000000000000FFE9
:10011000FF0000FEFF8383838383C7EE7C380000EB
:10012000F8FC0E07030303070EFCF800003F7FE016
:10013000C08080C0E07F3FFFFF010101010101019C
:10014000FFFF0000FFFF0C0C0C0C1C3E77E3C1000E
:10015000007FFFC0C0C0C0C0E0703F1F00001F3F55
:1001600070E0C0C0C0E0703F1F00007FFFC1C1C190
:10017000C1C1E3773E1C00001F3F70E0C0C0C0E07B
:10018000703F1F000000000001FFFF01000000D5CC
:10019000F08D14A1C881CFD9F1AF2000706F7765C1
:1001A000723A0053706563005068797300D800D2CA
:1001B00000CD00C700C200B800B200AC00454C44FE
:1001C000455200504C414E54004C494748544E490A
:1001D0004E47004649524500454152544800574950
:1001E0004E4400574154455200535049524954001F
:1001F0007370643A2000737063443A007370634113
:100200003A006465663A0061746B3A0048503A20DF
:10021000003E0020534465663A20005341746B3A17
:100220002000205370643A20004465663A20002084
:1002300041744B3A200048503A20003E00657363F9
:10024000617065006368616E6765006974656D0063
:100250006D6F76650000000000003E5B4F5B3E3E28
:100260006B4F6B3E1C3E7C3E1C183C7E3C181C5762
:100270007D571C1C5E7F5E1C00183C1800FFE7C306
:10028000E7FF0018241800FFE7DBE7FF30483A06D5
:100290000E2629792926407F050507407F05253F41
:1002A0005A3CE73C5A7F3E1C1C08081C1C3E7F142D
:1002B000227F22145F5F005F5F06097F017F006677
:1002C00089956A606060606094A2FFA29408047ED1
:1002D000040810207E201008082A1C08081C2A0880
:1002E000081E101010100C1E0C1E0C30383E38303A
:1002F000060E3E0E06000000000000005F00000039
:1003000007000700147F147F14242A7F2A12231366
:1003100008646236495620500008070300001C227A
:1003200041000041221C002A1C7F1C2A08083E08AC
:1003300008008070300008080808080000606000AD
:1003400020100804023E5149453E00427F400072A1
:10035000494949462141494D331814127F10274518
:100360004545393C4A494931412111090736494936
:100370004936464949291E00001400000040340057
:10038000000008142241141414141400412214080B
:1003900002015909063E415D594E7C1211127C7FC3
:1003A000494949363E414141227F4141413E7F49D1
:1003B0004949417F090909013E414151737F0808BC
:1003C000087F00417F41002040413F017F08142207
:1003D000417F404040407F021C027F7F0408107F25
:1003E0003E4141413E7F090909063E4151215E7F60
:1003F00009192946264949493203017F01033F4033
:1004000040403F1F2040201F3F4038403F631408BA
:10041000146303047804036159494D43007F41414B
:10042000410204081020004141417F0402010204FE
:100430004040404040000307080020545478407F6B
:10044000284444383844444428384444287F3854A5
:1004500054541800087E090218A4A49C787F08044C
:10046000047800447D40002040403D007F10284437
:100470000000417F40007C047804787C0804047804
:100480003844444438FC1824241818242418FC7CCC
:1004900008040408485454542404043F44243C40B1
:1004A00040207C1C2040201C3C4030403C44281014
:1004B00028444C9090907C4464544C44000836414D
:1004C000000000770000004136080002010204022B
:1004D0003C2623263C1EA1A161123A4040207A38D6
:1004E0005454555921555579412154547841215539
:1004F00054784020545579400C1E5272123955558B
:100500005559395454545939555454580000457C60
:10051000410002457D420001457C40F0292429F03C
:10052000F0282528F07C545545002054547C547CF8
:100530000A097F4932494949323248484832324AE9
:100540004848303A4141217A3A42402078009DA003
:10055000A07D39444444393D4040403D3C24FF2483
:1005600024487E4943662B2FFC2F2BFF0929F620B8
:10057000C0887E090320545479410000447D4130F5
:1005800048484A32384040227A007A0A0A727D0D81
:1005900019317D2629292F28262929292630484D39
:1005A0004020380808080808080808382F10C8AC88
:1005B000BA2F102834FA00007B000008142A1422F5
:1005C00022142A14089500220095AA005500AAAA10
:1005D00055AA55AA000000FF00101010FF001414C7
:1005E00014FF001010FF00FF1010F010F01414148E
:1005F000FC001414F700FF0000FF00FF1414F404C3
:10060000FC141417101F10101F101F1414141F00B7
:10061000101010F0000000001F101010101F10101C
:100620001010F010000000FF10101010101010102B
:1006300010FF10000000FF140000FF00FF00001F6B
:1006400010170000FC04F414141710171414F40409
:10065000F40000FF00F714141414141414F700F736
:10066000141414171410101F101F141414F4141061
:1006700010F010F000001F101F0000001F140000F9
:1006800000FC140000F010F01010FF10FF14141400
:10069000FF141010101F00000000F010FFFFFFFFFC
:1006A000FFF0F0F0F0F0FFFFFF0000000000FFFFA0
:1006B0000F0F0F0F0F38444438447C2A2A3E147E13
:1006C00002020606027E027E0263554941633844F7
:1006D000443C04407E201E2006027E020299A5E7CB
:1006E000A5991C2A492A1C4C7201724C304A4D4D66
:1006F000303048784830BC625A463D3E494949004E
:100700007E0101017E2A2A2A2A2A44445F44444069
:10071000514A444040444A51400000FF0103E080F8
:10072000FF000008086B6B083612362436060F09E6
:100730000F06000018180000001010003040FF01E4
:1007400001001F01011E00191D1712003C3C3C3C1A
:1007500000000000002F0048503A20002F004850B1
:100760003A2000080B000202020000090400000108
:1007700002020000052400100105240101010424E7
:100780000206052406000107058103100040090444
:100790000100020A000000070502024000000705F0
:1007A00083024000000403090412010002EF020169
:1007B00040412336800001010203014172647569E2
:1007C0006E6F204C4C430041726475626F79000279
:1007D00002020202020200000202030103020101FE
:1007E00000020202030101030100020301020203ED
:1007F00001010002000301020303020002030301DE
:1008000002030302000200030102030302000200CC
:1008100003010203030200000000000000000000CA
:100820000A656E6420656E636F756E746572200A6A
:100830000000D22211241FBECFEFDAE0DEBFCDBF11
:1008400011E0A0E0B1E0E2EFFEE402C005900D92FD
:10085000AA34B107D9F729E0AAE4B1E001C01D929A
:10086000A43FB207E1F714E0CAE1D4E004C0219745
:10087000FE010E945D27C931D107C9F70E94FE22FF
:100880000C9477270C9400008038910574F5480F7C
:10089000592F511D4138510514F040E850E0481BD4
:1008A000FB01E770FF2721E030E001C0220FEA954D
:1008B000EAF7209577FF02C0695F7F4FFB0133E0C5
:1008C000F595E7953A95E1F7F695FE2FEE27F79522
:1008D000E795E80FF91FE951FC4F415030F0819145
:1008E000DF01119782238C93F8CF0895E7EEF3E0B0
:1008F000A0E0B8E000800EBC8111012C1197A0FD92
:10090000FDCF0192B9F70DB40895EDE0F1E09183C8
:100910008083738362830895E0913F09AE2FB0E036
:10092000AA0FBB1FAE5CB64F8D919C91892B21F510
:10093000EF5FE0933F09F0E0EE0FFF1FE451F74F48
:100940000190F081E02DF093F908E093F808A09170
:10095000F408B091F5088681958124813381189639
:100960003C93189719962C9319971A969C931A975B
:100970001B968C9381E0089580E00895E1E0F0E01B
:100980000E94D304319728F068517C4F8F4F9F4FBE
:10099000F9CFAB01FC010E94D304641775078E07E1
:1009A0009F07C8F30895ADEBB3E02FB7F8947D919E
:1009B0008D919C9166B52FBFA89B05C06F3F18F421
:1009C0007F5F8F4F9F4F22E0660F771F881F991F11
:1009D0002A95D1F70895FC018091E403882311F151
:1009E0003FB7F89482E08093E9002091F200822FD3
:1009F00090E01816190614F481E090E0882339F08D
:100A0000289844E64093E3034091F1004083222379
:100A100039F02091F200211103C02BE62093E80069
:100A20003FBF08958FEF9FEF08952FB7F89483E0AD
:100A30008093E9009091E800892F807295FF04C0AF
:100A40009091F20080E4891B2FBF08958091DB0311
:100A500081110DC082E08093D70384E08093D80396
:100A60001092DA031092D90381E08093DB0387EDC3
:100A700093E008958F929F92AF92BF92CF92DF92B0
:100A8000EF92FF920F931F93CF93DF936C017B0143
:100A90008A0180910C01882309F458C08091E403F5
:100AA000882309F453C08091D60380FF05C080914C
:100AB000E00082608093E000E801B12C8AEFA82E6C
:100AC00093E0892E2AE3922E209711F4BB20B9F1EE
:100AD0000E941505811106C0AA94AA20B9F10E94AE
:100AE000BE04F2CF8C171D0611F00CF08C2F9FB7AF
:100AF000F8948092E9002091E80025FD02C09FBF94
:100B0000E3CF282F30E0C21BD30BF701815020F038
:100B100041914093F100FACFE20EF31EBB2021F089
:100B20009092E800B12CEBCF8091E80085FDE7CFF3
:100B30009092E800BB24B394209709F3F3CF5D981B
:100B400084E68093D503101611063CF081E090E016
:100B5000F6019383828310E000E0C801DF91CF911A
:100B60001F910F91FF90EF90DF90CF90BF90AF90CB
:100B70009F908F900895CF93DF931F92CDB7DEB7EC
:100B80006983DC01ED91FC910280F381E02D41E06D
:100B900050E0BE016F5F7F4F09950F90DF91CF91BD
:100BA000089583E08093E9008091F200882319F092
:100BB0008AE38093E80008950E94150590E0089567
:100BC000CF93DF931F92CDB7DEB7FC018485958567
:100BD00097FD08C02FEF3FEF358724870F90DF91F7
:100BE000CF910895CE0101960E94EB04019719F46C
:100BF000898190E0F3CF8FEF9FEFF0CF0F931F939A
:100C0000CF93DF931F92CDB7DEB78C01FC018485B3
:100C1000958597FF0BC0CE0101960E94EB040197CA
:100C200071F4898190E0F80195878487F8018485C3
:100C300095850F90DF91CF911F910F9108958FEFC0
:100C40009FEFF1CFFC018485958597FD0BC09FB781
:100C5000F89482E08093E9008091F2009FBF90E0D9
:100C6000019608959FB7F89482E08093E9008091FF
:100C7000F2009FBF90E008954091D1035091D203BC
:100C80002091CF033091D00342175307B4F49091D1
:100C9000E8009570E1F39091E80092FD19C080930F
:100CA000F1008091D1039091D20301968F7399271F
:100CB000892B19F48EEF8093E8008091D1039091F5
:100CC000D20301969093D2038093D10381E00895DB
:100CD00080E00895DF92EF92FF920F931F93CF93DE
:100CE000DF93D82E8A01EB017B01E40EF51ECE15B1
:100CF000DF0559F0D7FE12C0FE0184910E943C0628
:100D000021968111F4CF0FEF1FEFC801DF91CF9132
:100D10001F910F91FF90EF90DF9008958881EECFA3
:100D20000F931F93CF93DF931F92CDB7DEB782E06F
:100D3000898342E450E063E677E080E80E946A0637
:100D40000E942605DC0112960D911C9101151105DA
:100D500089F0D801ED91FC910280F381E02DBE0174
:100D60006F5F7F4FC801099597FD04C0F8010085AA
:100D70001185ECCF89810F90DF91CF911F910F9159
:100D80000895615030F02091F100FC01208301961C
:100D9000F8CF289884E68093E30308959093CC03DA
:100DA0008093CB037093CA036093C9030895EF92B5
:100DB000FF920F931F93CF93DF938C017B01D0E0C1
:100DC000C0E0F701EC0FFD1F6491662361F0D801CC
:100DD000ED91FC910190F081E02DC8010995892BDE
:100DE00011F02196EECFCE01DF91CF911F910F919F
:100DF000FF90EF900895CF93DF93CAEED8E060E2C2
:100E000078E0888199810E94D70610924B09EC8581
:100E1000FD8511821082DF91CF910895AF92BF922C
:100E2000CF92DF92EF92FF920F931F93CF93DF93B6
:100E30006C017B018B01040F151FEB015E01AE18E5
:100E4000BF08C017D10759F06991D601ED91FC9107
:100E50000190F081E02DC6010995892B79F7C50134
:100E6000DF91CF911F910F91FF90EF90DF90CF9086
:100E7000BF90AF9008950E944607982F0C944607A4
:100E80000DB407FEFDCF8EB5599A08950DB407FE37
:100E9000FDCF8EB51EBC08950E944607982F0C9476
:100EA000400790E0409F09F4142E5527090E151EA7
:100EB000600D711D851F11240C9478070F9303E0BA
:100EC00020E00E9451070E943B07782F0E944007B4
:100ED000682F892F0F91089559980E945109862FE4
:100EE0000E945109852F0E945109842F0C945109A9
:100EF000462F5091C103570F6091C203681F83E0D2
:100F00000E946C071EBC08953F924F925F926F92B1
:100F10007F928F929F92AF92BF92CF92DF92EF9289
:100F2000FF920F931F93CF93DF935C016B01390105
:100F3000842E302E9E2C842FB9010E9478070E94A7
:100F40003B07582EC82FD92F0E944C07FC019E0149
:100F50002A0D3B1D121613060CF0F7C040E8A4162C
:100F6000B1040CF0F2C08C0D9D1D181619060CF082
:100F7000ECC040E4C416D1040CF0E7C0B7FE0BC0CF
:100F8000EE24FF24EA18FB085E18203831055CF0D7
:100F900040E8542E08C0213831051CF020E8522EBC
:100FA0005A18F12CE12CD7FEE2C0002711270C19AA
:100FB0001D09087FCF01801B910B4E2E401A8134F2
:100FC000910534F08C2D8195877030E4432E480EC6
:100FD000159507951595079515950795CF010796D2
:100FE000969587959695879596958795389E9001C5
:100FF000399E300D1124200F311F40E0BE010D2E0F
:10100000000C880B0E943F27A82FCB018E0D9F1D3F
:10101000A11DF7FCAA9594FE05C0880F991FAA1F71
:10102000CC0FDD1F24E0620E711C811C680E791E3E
:101030008A1E960183E0359527958A95E1F7020F80
:1010400030E80303D0011124AA0DBB1DAE0DBF1D56
:1010500095FE05C0252D2150330BA20FB31F31E0A3
:10106000C1FC34E0C0FC330FC2FC3295A951BC4F27
:10107000242D599883E08EBD8091C1039091C203C5
:10108000870D981D0DB407FEFDCF9EBD0DB407FE64
:10109000FDCF8EBD0DB407FEFDCF6EBC6C0E7D1E68
:1010A000811C0DB407FEFDCF1EBC990C073014F453
:1010B000089430FD8894979462E021FD68E022FD59
:1010C000629520FF66956A9511F028300CF06FEF5D
:1010D000952D0EB41EBC93FC0626862F90FC802D09
:1010E00092FC0024039EA00194FA36F4C895C8959A
:1010F00011240EB41EBC90FC082E039E003034F068
:101100008C9191FE4827402148274C93A058BF4F0F
:1011100097FE06C08C9191FE5827512158275C9369
:10112000112495FCA15895FEAF57B1099A9589F6FF
:10113000852D95FE81958058A80FB11D28500395E7
:101140000DB4599A12160CF494CFDF91CF911F91E0
:101150000F91FF90EF90DF90CF90BF90AF909F9056
:101160008F907F906F905F904F903F9008954E2E9C
:10117000813491051CF080E4482E4C1810E000E00A
:101180002DCF6F927F928F92CF92DF92EF92FF924C
:101190000F931F93CF93DF93C0900F01D090100156
:1011A0008A3009F443C0182FF090C603C0910D0196
:1011B000D0910E016090C3037090C4038090C5036A
:1011C000EF2C082F482D9301B601CE010E94840711
:1011D0008091C703F5FE0CC081E0781A8108882D44
:1011E000B301610F711D811D0E9478070E944007A5
:1011F0008C0F9D2F911D20911301309114018217A6
:101200009307A4F490930E0180930D01D0921001E6
:10121000C0920F01DF91CF911F910F91FF90EF903E
:10122000DF90CF908F907F906F9008958091110103
:10123000909112012091C803C20ED11CE3CFCF922E
:10124000DF92EF926B01E82E9FEFC91AD90AE90AE3
:101250000E9478070E944007882339F08D3011F0F2
:101260000E94C1088E2DB601EDCFEF90DF90CF9098
:1012700008950F931F93CF93DF93EA0189010E9492
:101280007807FE010150104021F00E94460781932B
:10129000F9CF0E9440078083DF91CF911F910F917A
:1012A00008958EBD00008EB50DB407FEFCCF0895E5
:1012B0002D9A0895BC0190E080E0AB01FC010E94F2
:1012C000D30441505109E109F10928F068517C4FDC
:1012D0008F4F9F4FF6CFAB01FC010E94D3046417E0
:1012E00075078E079F07C8F308958FB18095807F9B
:1012F000669B88601C9B846008959091E503982309
:1013000029F49091E603982381E009F480E00895A0
:10131000CF93C82F0E947509982F9C2381E09C13BE
:1013200080E0CF91089580E00C9476048038910598
:10133000B8F460347105A0F420E191E061FD94E01F
:1013400060FD990F62FD9295687F269FD001112460
:10135000A80FA951BC4F8C9140FF03C0892B8C93DF
:10136000089590958923FBCF6F927F928F929F92E1
:10137000AF92BF92CF92DF92EF92FF920F931F93A3
:10138000CF93DF936D3089F0C090C903D090CA032A
:101390006A30E1F41092CC031092CB0388E0C80EBF
:1013A000D11CD092CA03C092C90381E090E0DF91C2
:1013B000CF911F910F91FF90EF90DF90CF90BF9052
:1013C000AF909F908F907F906F90089560900001F4
:1013D000E090CB03F090CC03E5E06E9FE001112498
:1013E000CB5ADD4F570100E010E0053029F0CE0167
:1013F0000196FE011491EC01460188E0782E412F00
:10140000417010FD1BC0662021F0B401C5010E948F
:10141000960916957A94FFEF8F1A9F0A7110EFCFF5
:101420000F5F8FEFA81AB80A0630F1F6E6E0EE0E6D
:10143000F11CF092CC03E092CB03B7CF462DE5CF61
:10144000DF92EF92FF920F931F93CF93DF937C0174
:10145000EB01D22E8B01040F111DC80101341105BF
:1014600014F080E490E0C817D9073CF44D2DBE017C
:10147000C7010E9496092196F0CFDF91CF911F916D
:101480000F91FF90EF90DF900895EF92FF920F93EE
:101490001F93CF93DF937C018B01C42FD22F603435
:1014A000710514F40E944404B8016D0F711D615060
:1014B00071096034710524F44C2FC7010E94440463
:1014C00020E04D2FB801C7010E94200AC7018C0FF0
:1014D000911D20E04D2FB8010197DF91CF911F9111
:1014E0000F91FF90EF900C94200ACF93DF93C3E20B
:1014F000D0E021E04EE161E070E0CE010E94200AE0
:101500002196CF35D105A9F72CE14AE362E070E0DE
:1015100084E290E0DF91CF910C94450ABF92CF9284
:10152000DF92EF92FF920F931F93CF93DF93EC0123
:10153000BB80CA80E980F12C088110E0C00ED12E5A
:10154000D11C0C151D054CF421E04B2DB701C80131
:101550000E94200A0F5F1F4FF4CF2B8122504A8137
:101560004250698170E06F5F7F4F888190E0019603
:10157000DF91CF911F910F91FF90EF90DF90CF906F
:10158000BF900C94450A8FB7F8944091B9035091DD
:10159000BA036091BB037091BC038FBF8091B50308
:1015A000882321F01092B50380E008959091B6034E
:1015B000242F291B203138F42F30A1F091E093BF64
:1015C000889513BE089581E08093B5034093B603D8
:1015D0008091B3039091B40301969093B4038093E8
:1015E000B30381E00895FC01C39628E021831782AC
:1015F000108611861286138614861686158617861F
:10160000108A7196E817F90789F70895FC01C396C7
:1016100028E021831782108611861286138614868D
:10162000168615861786108A7196E817F90789F7C6
:10163000089521E030E00C94390928E130E00C9461
:101640003909EF920F93FC01848D8150990B65E06D
:1016500070E00E9449278281082F000F080F060FB3
:10166000E12C20E030E040E068E170E088E390E0C9
:101670000E9484070F91EF900895AF92BF92CF928E
:10168000DF92EF920F93CF93DF93EC016C0185E52E
:10169000C80ED11C5E01EBE8AE0EB11C48A159A1E9
:1016A000F601808190E09A012B5F3F4F28173907A0
:1016B0000CF460C02A503109821793070CF45AC009
:1016C0002AA13BA1618170E0F9013296E617F70784
:1016D0000CF450C034976E177F070CF44BC0841B7A
:1016E000950B621B730B4A815B814115510509F40F
:1016F00051C04230510509F452C0F0E0E0E021E071
:1017000030E04330510561F021E030E041305105D7
:1017100011F030E020E0319521953109F0E0E0E072
:101720004C8D4F7050E0A4E0660F771FAA95E1F74B
:10173000685E7F4F4E9FD0014F9FB00D5E9FB00DF2
:1017400011246A0F7B1FB4E0880F991FBA95E1F747
:10175000C796429FF001439FF00D529FF00D112458
:1017600000E1E02E00E024E33BE440E08E0F9F1F09
:101770000E948407F9E0CF0ED11CAC14BD0409F01F
:101780008DCFDF91CF910F91EF90DF90CF90BF90F1
:10179000AF900895E1E0F0E030E020E0C1CFEFEF5E
:1017A000FFEFFACF6F927F928F929F92AF92BF928C
:1017B000CF92DF92EF92FF920F931F93CF93DF931D
:1017C0005C01912C812CD12CC12C14E1A0E16A2E5A
:1017D000712CD0E0C0E0D5015596ED90FC90C7018A
:1017E000F7FC0F96F4E095958795FA95E1F7BE0121
:1017F000681B790B77FD47C0F5018789908DAC0197
:1018000097FF02C0415F5F4FE4E055954795EA9529
:10181000E1F79601241B350BA90137FD34C0D50132
:101820005A962C915A972617170669F164F1599622
:101830002C912417150639F134F1149F9001159F4E
:10184000300D1124255A3E4F260F371FB3010E9439
:101850004927FC01E80DF91D3897C701B3010E9423
:101860004927AE0164E0440F551F6A95E1F7840FE4
:10187000951FE12CD9010C9128E231E140E0BF0134
:1018800009970E9484072196CC30D10509F0A3CF97
:10189000BFEFCB1ADB0AE0E18E0E911CF8E0CF1609
:1018A000D10409F096CFDF91CF911F910F91FF9056
:1018B000EF90DF90CF90BF90AF909F908F907F90F0
:1018C0006F90089523E030E00C943909FC01968D67
:1018D0009F3F11F09150968F0895FC01CB01E830A5
:1018E000F10528F5EA58F34F0C945D277E0C820C25
:1018F000850C880C8B0C8E0C910C940C69EE71E0AD
:101900000C94D70663EE71E0FBCF6EED71E0F8CF7B
:1019100068ED71E0F5CF63ED71E0F2CF69EC71E055
:10192000EFCF63EC71E0ECCF6DEB71E0E9CF0895A0
:10193000CF93DF931F92CDB7DEB7482F6DE370E5ED
:1019400080E00E945E0721E030E0AE014F5F5F4F14
:101950000E94390989810F90DF91CF910895CF932B
:10196000DF93FC01DB0173836283CB014196958396
:101970008483419697838683EF01C85BDF4F1D9672
:101980008C911D9790E09983888322965E968C9126
:101990005E9790E09983888322969F968C919F977B
:1019A00090E0998388832996188277876687C28515
:1019B000D38516968C91169715969C91159714962B
:1019C0002C91149713963C91388729879A878B8797
:1019D000A285B385C681D78188810480F581E02DF9
:1019E00090811C969C931C971D968C93DF91CF91B0
:1019F00008952EE030E00C943909CF93DF93EC0189
:101A0000C40FD11D6B83862F0E94980C282F22951E
:101A1000220F207E982F969596959E71922B87FB8C
:101A2000882780F9892B8F83DF91CF9108958F923A
:101A30009F92AF92BF92CF92DF92EF92FF920F935D
:101A40001F93CF93DF93CDB7DEB72E970FB6F894E1
:101A5000DEBF0FBECDBF8C016A017B014A015B0175
:101A600089E1B694A794979487948A95D1F7682DC5
:101A70006F718EE0689FB001112480E0655C724B4D
:101A80008F4FAE014F5F5F4F0E94F90C8981F801C3
:101A900080838B818F70818394E1F694E794D7944F
:101AA000C7949A95D1F7FC2DFF71CF2EF801C28211
:101AB0004E812F81988589853A855D81538744873A
:101AC0003687825E85872787908B40E060E0C8017B
:101AD0000E94FD0C41E060E0C8010E94FD0C42E064
:101AE00060E0C8010E94FD0C43E0682DC8010E941F
:101AF000FD0C2E960FB6F894DEBF0FBECDBFDF9162
:101B0000CF911F910F91FF90EF90DF90CF90BF90FA
:101B1000AF909F908F900895AF92BF92CF92DF9237
:101B2000EF92FF920F931F93CF93DF93CDB7DEB762
:101B30002E970FB6F894DEBF0FBECDBF6C01842F79
:101B4000F601A082E386F4863687225E2587078722
:101B5000108BF52E8B0140E0682FC6010E94FD0C12
:101B600041E06F2DC6010E94FD0C42E0602FC601CE
:101B70000E94FD0C43E0612FC6012E960FB6F8942B
:101B8000DEBF0FBECDBFDF91CF911F910F91FF90B0
:101B9000EF90DF90CF90BF90AF900C94FD0C089524
:101BA00090E080E00895CF93DF93EC010E946E26D1
:101BB000CA85C45027E030E040E050E00E94DC26B7
:101BC0008C2F860FDF91CF910895AF92BF92CF9265
:101BD000DF92EF92FF920F931F93CF93DF93DC017D
:101BE0001296ED91FC91E130F10509F431C18A01C1
:101BF0009B01E130F10590F0E230F10509F4FAC003
:101C0000339709F419C1DF91CF911F910F91FF9084
:101C1000EF90DF90CF90BF90AF900895FC01A4812A
:101C2000A60FB72FB11D1796EC9117978E2F90E046
:101C3000959587958F701396EC90DB01AE0DB11DD5
:101C400017969C91929596959770FF24F3949923FB
:101C500041F0DB0111964C914F70FF24F39449132E
:101C6000F12CD9011B969C91492F480F5527551FE0
:101C7000CA01D8011C966C9170E00E944927EB01C3
:101C8000D80111968C91E295E695E770B9E0EB9F4B
:101C9000A0011124FA01E153F84FE491E13009F475
:101CA00049C0E33009F449C0E82FEF70E83061F033
:101CB000E40FF52FF11DE153F84FE491E13009F401
:101CC0003FC0E33009F43FC0F901B08081E090E00B
:101CD00090930E0180930D018DE290E0909310019E
:101CE00080930F01D12CC12C21E040E260E270E032
:101CF000C6010E94200AFFEFCF1ADF0A40E8C4168F
:101D0000D10491F74B2D6BED7CE480E00E945E07DF
:101D10000E941F0930E4A32E31E0B32ED501DD90DF
:101D20005D01DD2099F0BDE0DB16C1F38D2D0E9431
:101D3000C108F4CFD695C795B7CFCC0FDD1FB4CF70
:101D4000D695C795C1CFCC0FDD1FBECF81E090E007
:101D500090930E0180930D0187E390E09093100122
:101D600080930F014E2D6AED7FE480E00E945E07B4
:101D70000E941F090E94930988E00E947D09811139
:101D80000CC08091E6038093E5030E94750980935F
:101D9000E603F2CFEFE0DE1631F00E94C30A88239B
:101DA000C9F3D394F7CFFF2011F0CC0FDD1F809142
:101DB000F8089091F90808171907A1F4E0913F0974
:101DC000F0E0EE0FFF1FEE5CF64F808191819C01E9
:101DD0003327C217D30708F49E01821B930B91830C
:101DE000808311CFE0914009F0E0EE0FFF1FE85C27
:101DF000F64FEBCF0E946E2629E030E040E050E045
:101E00000E94DC266F5F7F4F8F4F9F4F65307105BB
:101E10000CF0F9CE8091F2089091F308E091FA0865
:101E2000F091FB0822813081FC01E05CFF4F3083A0
:101E30008F5B9F4FDC012C93DF91CF911F910F910E
:101E4000FF90EF90DF90CF90BF90AF900C94FB0687
:101E5000FC018481A091EC08B091ED089C91E09187
:101E6000F408F091F508891771F0C091EE08D0914F
:101E7000EF089881891759F1C091F008D091F108C5
:101E800098818917D1F1B093F908A093F8081696B4
:101E90008C91169715969C91159714962C911497E2
:101EA00013963C913087218792878387E091F408CD
:101EB000F091F508A091F008B091F1088C91A091F3
:101EC000EE08B091EF089C91948785879CCED093C3
:101ED000F908C093F8088E819D812C813B81308761
:101EE000218792878387E091F408F091F508C091EB
:101EF000F008D091F1088881E6CFD093F908C0931B
:101F0000F8088E819D812C813B81308721879287C3
:101F10008387E091F408F091F508C091EE08D09124
:101F2000EF08E9CF4091FA085091FB086091F8085A
:101F30007091F90881E499E00E94E50D80914009D3
:101F4000E82FF0E0EE0FFF1FE85CF64F20813181B3
:101F5000232B91F080914B098823E1F04091F80800
:101F60005091F9086091FA087091FB0886E499E0B5
:101F70000E94E50D0C948C048F5F8093400921E151
:101F8000829FC00111248450974F9093FB08809347
:101F9000FA08089508954091F8085091F908609161
:101FA000FA087091FB0886E499E00E94E50D0E9412
:101FB0008C04811129C080914B09882329F140911B
:101FC000FA085091FB086091F8087091F90881E4D3
:101FD00099E00E94E50D80914009E82FF0E0EE0FB6
:101FE000FF1FE85CF64F20813181232B69F48F5F5E
:101FF0008093400921E1829FC00111248450974FB2
:102000009093FB088093FA0808958F929F92AF9265
:10201000BF92CF92DF92EF92FF926B017C01C216CA
:10202000D306E406F50684F449015A018C189D088C
:10203000AE08BF080E946E26A50194010E94DC260E
:10204000C60ED71EE81EF91EC701B601FF90EF901D
:10205000DF90CF90BF90AF909F908F900895CF93D7
:10206000DF93EC010E946E262AE030E040E050E071
:102070000E94DC26C60FD11D8881DF91CF91089583
:10208000FB0101900020E9F73197AF01461B570B88
:10209000DC01ED91FC910280F381E02D09948F9297
:1020A0009F92AF92BF92EF92FF920F931F93CF93A5
:1020B000DF93CDB7DEB7A1970FB6F894DEBF0FBEA2
:1020C000CDBF7C01FA01CB0119A2223008F42AE02D
:1020D0008E010F5D1F4F822E912CB12CA12CBF01C0
:1020E000A50194010E940E27F901CA016A300CF57E
:1020F000605DD8016E938D01232B242B252B79F75E
:1021000090E080E0109721F0BD01C7010E944010CF
:10211000A1960FB6F894DEBF0FBECDBFDF91CF9171
:102120001F910F91FF90EF90BF90AF909F908F9075
:102130000895695CDECF9A01452B39F4DC01ED91FD
:10214000FC910190F081E02D0994462F50E070E061
:1021500060E00C944F100F931F93CF93DF93EC012B
:102160004AE050E00E949B108C0166E471E0CE01D1
:102170000E944010800F911FDF91CF911F910F910E
:102180000895FF920F931F93CF93DF93603209F46A
:1021900050C0EC01862F0E94980CF82E06E210E049
:1021A0001093CC030093CB0384E090E09093CA0398
:1021B0008093C903EF2DE770F0E0EE0FFF1FE355AA
:1021C000FE4F65917491CE010E94D7061093CC0307
:1021D0000093CB038CE090E09093CA038093C903F3
:1021E00068EA71E0F7FC02C063EA71E0CE010E9488
:1021F000D70686E290E09093CC038093CB0383E1F3
:1022000090E09093CA038093C9036CE971E0CE011A
:102210000E94D7066F2D6695669566956F704AE0A9
:1022200050E0CE01DF91CF911F910F91FF900C9460
:102230009B10DF91CF911F910F91FF9008950C9407
:10224000C6261F920F920FB60F9211248F939F9361
:102250008091E1009091E100937F9093E10083FFF2
:102260000FC01092E90091E09093EB001092EC0007
:1022700092E39093ED001092E40398E09093F000C5
:1022800082FF22C093E09093E9009091F20099239D
:1022900019F09AE39093E8009091D503992341F0C7
:1022A0009091D50391509093D503911101C05D9AFF
:1022B0009091E303992341F09091E303915090931F
:1022C000E303911101C0289A84FF18C08091E200B5
:1022D0008E7E81608093E2008091E1008F7E80930A
:1022E000E1008091D6038E7E80618093D6039F911A
:1022F0008F910F900FBE0F901F90189580FFF7CF12
:102300008091E2008E7E80618093E2008091E10006
:102310008E7E8093E1008091D6038E7E8160E5CF32
:102320001F920F920FB60F921124CF92DF92EF926D
:10233000FF920F931F932F933F934F935F936F934E
:102340007F938F939F93AF93BF93EF93FF93CF931D
:10235000DF93CDB7DEB76C97DEBFCDBF1092E9003B
:102360008091E80083FF25C068E0CE0145960E9479
:10237000C10682EF8093E8008D8987FF39C0909174
:10238000E80090FFFCCF982F907609F034C19E8929
:102390004F89588D2F89F88C911131C0803861F5A3
:1023A0008091D4038093F1001092F1008EEF80931E
:1023B000E8006C960FB6F894DEBF0FBECDBFDF917C
:1023C000CF91FF91EF91BF91AF919F918F917F91AD
:1023D0006F915F914F913F912F911F910F91FF90BE
:1023E000EF90DF90CF900F900FBE0F901F90189539
:1023F0009EEF9093E800C7CF1092F100D5CF9130B7
:1024000059F48111D3CF4130510581F68091D40325
:102410008D7F8093D403CACF933049F48111C6CF06
:102420004130510519F68091D4038260F2CF953086
:1024300041F48091E80080FFFCCF20682093E30006
:10244000B5CF963009F0A9C00B8D1C8D22E01092FB
:10245000E9001092D2031092D103F2122EC0109212
:10246000D0031092CF030E9490061F8299E09983B7
:10247000FA8291E09E8390EA98879AEF998720915B
:10248000D1033091D203275F3F4F3C832B838D8351
:102490001092E9001092D2031092D1031093D0034E
:1024A0000093CF0349E050E0BE016F5F7F4F80E0B3
:1024B0000E946A060E94900679CF1093D003009381
:1024C000CF030E942605DC0112960D911C91011587
:1024D000110509F451C1D801ED91FC910480F581F9
:1024E000E02DBE016B5E7F4FC8010995009709F092
:1024F0003EC1F80100851185EACFF3E0FF120EC05E
:102500008F89882309F440C0823061F440E867E095
:1025100087EC97E00E949F22811148CF81E280934F
:10252000EB0047CF813029F440E86BE08BEB97E07C
:10253000F1CF833099F70E942605DC011296ED90C9
:10254000FC908E010F5F1F4F6801E114F10479F0D8
:10255000D701ED91FC910680F781E02DB801C7010C
:102560000995080F111DF701E084F184EECFD80121
:102570001C92F60101900020E9F73197BF016C1918
:102580007D0940E0C601C6CF65EA77E0FB014491D2
:1025900050E080E80E946A0609CF973009F4BECF68
:1025A000983021F481E08093F10000CF993009F058
:1025B000FDCE837009F0B2CFECE1F1E081E031E0D3
:1025C00096E32191222371F08093E9003093EB0090
:1025D000DF0111972C912093EC009093ED008F5F19
:1025E000873079F78EE78093EA001092EA008F89AE
:1025F0008093E403DBCE8B8D9C8D1092E9001092CA
:10260000D2031092D1039093D0038093CF03898D8E
:10261000811192C08E899D89913A49F4813209F0E5
:102620007DCF47E050E065E071E080E0B3CF9132CC
:1026300009F074CF833269F48F89988DB0E0A0E0FF
:102640008093010190930201A0930301B0930401D0
:10265000ADCE803269F48091E80082FFFCCF67E064
:1026600085E091E00E94C1068BEF8093E8009ECE4A
:10267000823209F09BCE8F8980930C01EEEFFFE749
:10268000859194918B3F9C4D51F1E0E0F8E0809171
:10269000050190910601A0910701B0910801803BCE
:1026A0009440A105B105F1F480910C0180FD1AC0A0
:1026B000EE3F8AE0F80789F587E797E79183808303
:1026C000809160008093D30388E19BE00FB6F8947B
:1026D000A895809360000FBE9093600067CEEEEFE8
:1026E000FAE0D5CF808191818737974709F05ECE98
:1026F000A895809160008861809360008091D303E9
:1027000080936000EE3F2AE0F20789F08091FE0A94
:102710009091FF0A9183808349CE80819181873790
:10272000980751F29093FF0A8093FE0AC5CF10924A
:10273000FF0A1092FE0A3ACE0E942605DC0112968C
:102740000D911C910115110509F4E8CED801ED9108
:10275000FC910190F081E02DBE016B5E7F4FC801BE
:102760000995811123CEF80100851185EBCF18164C
:1027700019060CF41BCED2CEF1E0FF12BECE69EAF0
:1027800077E004CF0F920FB68F939F93EF93FF9351
:102790008091B8038D5F8D3708F08D578093B80313
:1027A000E9EBF3E080818E4F808391819F4F91838D
:1027B00082818F4F828383818F4F8383EDEBF3E0A0
:1027C00080818F5F808381818F4F818382818F4F52
:1027D000828383818F4F83838FB18F6066991C9B27
:1027E00088278F3681F48091B703981B963068F064
:1027F000E0E0F8E087E78083818388E180936000F0
:10280000F0936000FFCF9093B703FF91EF919F91FA
:102810008F910FBE0F901895AF92BF92CF92DF921B
:10282000EF92FF920F931F93CF93DF93CDB7DEB755
:1028300065970FB6F894DEBF0FBECDBF9B8B8A8B1A
:102840006C8B4D8B8C89282F30E0C901880F991F24
:10285000880F991F880F991F821B930B880F991F50
:10286000CC01A0E0855C924BAF4F89839A83AB8308
:102870009E012C5F3F4F89819A81AB81A901BC01E8
:102880008A2F0E94F90C8A899B8922E0FC0123ABE4
:102890008A899B89FC0114AA8A899B89FC0115AA53
:1028A0008A899B89AC80BD80CE80DF80E884F984F2
:1028B0000A851B852C853D854E855F8568897989CC
:1028C0000E948C0D65960FB6F894DEBF0FBECDBF8B
:1028D000DF91CF911F910F91FF90EF90DF90CF90FC
:1028E000BF90AF9008950F931F93CF93DF93EC01A8
:1028F0008C010E5E1F4FC8010E940C14FE01EA5AA3
:10290000FF4F1082198B088B38978F8D90E0918341
:102910008083329688A990E0918380833296DE018D
:10292000AF5BBF4F8C9190E0918380836885798500
:10293000CE010E94AF0CEC85FD8581E090E0918393
:102940008083CF59DF4F888310920001DF91CF91B0
:102950001F910F910895CF93DF9300D000D000D046
:10296000CDB7DEB79C838B836D834E838D81282FFB
:1029700030E08B819C81FC0131A320A38E81282F24
:1029800030E08B819C81FC0133A322A394E08D81F4
:10299000F92FF81B8F2F898392E08E81292F281B16
:1029A000822F8A838981082E000C990B9C01229525
:1029B0003295307F3227207F32278B819C81FC012A
:1029C000368B258B8A81082E000C990B9C01229551
:1029D0003295307F3227207F32278B819C81FC010A
:1029E000308F278B26960FB6F894DEBF0FBECDBF73
:1029F000DF91CF910895CF93DF93CDB7DEB7609786
:102A00000FB6F894DEBF0FBECDBF988B8F878F8532
:102A10009889FC0180A191A19A8389838F859889E7
:102A2000FC0182A193A19C838B838F859889FC01F3
:102A30008281938181309105F1F0823091051CF4FF
:102A4000892B39F01DC08230910549F0039769F058
:102A500017C08B819C8101979C838B8311C08B81D4
:102A60009C8101969C838B830BC089819A810197FD
:102A70009A83898305C089819A8101969A83898383
:102A800089819A819923D4F08B819C819923B4F018
:102A90008F859889FC01828D882F90E029813A8169
:102AA000281739075CF48F859889FC01818D882F60
:102AB00090E02B813C812817390714F080E055C045
:102AC0001D828D81863080F58D81282F30E04F85E5
:102AD0005889C901880F991F880F991F880F991F5E
:102AE000820F931F840F951F8B5A9F4F29E0FC0183
:102AF000DE01169601900D922A95E1F78E81882FBE
:102B000090E029813A812817390751F48F81882F65
:102B100090E02B813C812817390711F480E025C013
:102B20008D818F5F8D83CDCF8B819C8144E1489FC8
:102B30009001499F300D112489819A81820F931F42
:102B4000855A9E4FFC0120818F859889FC01278F33
:102B50008F859889FC01878D882F90E0009711F070
:102B6000409711F481E001C081E060960FB6F894BF
:102B7000DEBF0FBECDBFDF91CF910895CF93DF931E
:102B8000EC0180E80E948809882361F01B821A8288
:102B9000CE010E94FB14882311F081E08B8FDF911E
:102BA000CF91089580E10E948809882329F082E06E
:102BB00090E09B838A83ECCF80E20E94880988237F
:102BC00019F083E090E0F5CF80E40E948809882323
:102BD00019F081E090E0EDCF1B8EE1CFCF93DF9332
:102BE00000D000D000D01F92CDB7DEB79F838E8378
:102BF0008E819F81FC0142A153A18E819F81FC01A6
:102C000080A191A164E1649F9001659F300D112422
:102C1000820F931F855A9E4FFC0180818983898191
:102C2000882389F525E630E040E050E061E070E07F
:102C300080E090E00E940510DC01CB019B838A8339
:102C40008A819B810B97FCF48E819F8104960E9460
:102C50002F108C838E819F8104960E94D30D8D83CB
:102C60008E819F81FC01818992894D816C810E94B6
:102C700073148E819F81FC01858D968D21E030E05B
:102C8000FC013183208327960FB6F894DEBF0FBE78
:102C9000CDBFDF91CF910895CF93DF9300D01F92E6
:102CA000CDB7DEB78A836B838B81482F50E08A8152
:102CB000882F90E064E1649F9001659F300D11249E
:102CC000820F931F855A9E4FFC01808189838981E1
:102CD0008A3119F089818C3111F481E001C080E0E2
:102CE0000F900F900F90DF91CF9108950F931F9346
:102CF000CF93DF93CDB7DEB72B970FB6F894DEBF37
:102D00000FBECDBF98878F8369874A872B874985F8
:102D100063E771E580E00E945E07A82FCB018983FD
:102D20009A83AB8389819A81AB814A85BC018A2FC2
:102D30000E945E079B01482F8B85682F70E0CB01B6
:102D4000880F991F860F971F880F991FCC01A0E04D
:102D5000820F931FA41F89839A83AB8389819A81F1
:102D6000AB8140E0BC018A2F0E945E07A82FCB01F7
:102D70002F813885F90183839483A58389819A8182
:102D8000AB8141E0BC018A2F0E945E078B01282F96
:102D9000CE010496AC01822FB8010E94620C2F81F3
:102DA00038858C819D81AE81F90180839183A283D6
:102DB0002B960FB6F894DEBF0FBECDBFDF91CF913B
:102DC0001F910F9108950F931F93CF93DF93CDB76A
:102DD000DEB768970FB6F894DEBF0FBECDBF9E8BEF
:102DE0008D8B6F8B488F8D899E892F89FC0126A33F
:102DF0004F896AE274E580E00E945E07A82FCB014C
:102E00008E839F83A8878E819F81A885488DBC0172
:102E10008A2F0E945E07A82FCB018E839F83A887ED
:102E20008D899E899C01265C3F4F8E819F81A8855C
:102E3000A901BC018A2F0E941D0B8F89282F30E029
:102E40004FE0429FC001439F900D1124CC01A0E0B0
:102E5000835D9B4AAF4F89879A87AB878D899E890F
:102E60008C01095D1F4F89859A85AB8540E0BC01C7
:102E70008A2F0E945E07A82FCB01A801BC018A2FD0
:102E80000E94190B89859A85AB8544E0BC018A2F85
:102E90000E945E07A82FCB018C879D87AE8789850E
:102EA0009A85AB8545E0BC018A2F0E945E07A82F5A
:102EB000CB018F87988BA98B8D899E89BC01665E1B
:102EC0007F4F888D282F30E040E08C859D85AE8532
:102ED000820F931FA41FAB01BC018A2F0E94190B04
:102EE0008D899E89BC01675E7F4F888D282F30E0D9
:102EF00040E08F859889A989820F931FA41FAB0199
:102F0000BC018A2F0E94190B888D882371F4898552
:102F10009A85AB8541E0BC018A2F0E945E07A82FED
:102F2000CB0189839A83AB831DC089859A85AB8544
:102F300042E0BC018A2F0E945E07A82FCB01898343
:102F40009A83AB83888D2FEF280F89819A81AB817B
:102F5000422FBC018A2F0E945E07A82FCB018983D4
:102F60009A83AB831C828D899E89FC01818D9C8113
:102F70009817D0F58D899E89FC01828D482F50E0ED
:102F80008C81282F30E0429FC001439F900D529FBB
:102F9000900D1124CC01A0E08A8B9B8BAC8B8D898A
:102FA0009E89FC01828DE82FF0E08C81282F30E093
:102FB00044E1429FC001439F900D1124BC01655A1A
:102FC0007E4F29813A814B818A899B89AC89820F06
:102FD000931FA41F9F01AB01BC018A2F0E943909D6
:102FE0008C818F5F8C83BFCF1D828D818630D8F41A
:102FF0008D81282F30E0C901880F991F880F991FF4
:10300000880F991F820F931F8B5A9F4F2D893E89DE
:10301000820F931F2D81488D6F890E9476168D81B6
:103020008F5F8D83E2CF68960FB6F894DEBF0FBE38
:10303000CDBFDF91CF911F910F9108950F931F93F3
:10304000CF93DF93EC018A819B818130910521F13F
:1030500080F082309105A1F083309105B1F02C8D84
:103060002F5F2031F1F02C8FDF91CF911F910F91C5
:1030700008952F89388D2F5F3F4F388F2F8BEFCFDB
:103080002F89388D21503109F8CF2D893E892F5F46
:103090003F4F3E8B2D8BE3CF2D893E892150310947
:1030A000F8CF1C8E4AA15BA128A139A181309105DE
:1030B00009F44FC008F440C08230910509F441C0C2
:1030C000039709F441C01B8E6AA188A10E944C1687
:1030D000882359F128A139A1FE0190E080E043AD99
:1030E00042171306C9F562AD4AA15BA16417150624
:1030F00099F58C01000F111F000F111F0C0F1D1FE0
:10310000FC013F96EE0FFF1FEE0FFF1FEC0FFD1FA0
:10311000D801DD964C916081CE010E94E316F80142
:1031200042AD63ADCE010E94AB14CE01DF91CF91D1
:103130001F910F910C94EE15415051095BA34AA3C6
:10314000C2CF4F5F5F4FFACF2150310939A328A377
:10315000BACF2F5F3F4FFACF019634968630910554
:1031600009F0BDCFE2CF2F923F924F925F926F92C4
:103170007F928F929F92AF92BF92CF92DF92EF9207
:10318000FF920F931F93CF93DF93CDB7DEB7C35A50
:10319000D1090FB6F894DEBF0FBECDBF81EC80938E
:1031A0007C0085B1806F85B984B1877E84B984B194
:1031B000876E84B95E9A5F988AB1806D8AB9769A73
:1031C0006E9881B3806F81BB899880B38D7080BB0E
:1031D00080E58CBD81E08DBD85E090E00E945A09BC
:1031E0005F9A85E090E00E945A095E985C98EFE84B
:1031F000F1E084918EBD00000DB407FEFDCF319645
:1032000041E0EC39F407A9F75C9A81E88093640007
:10321000809165008160809365000E94930980E839
:103220000E948809882381F05C9885EA8EBD0000A1
:103230000DB407FEFDCF5C9A2E982F982D9881E053
:1032400083BF889513BEFCCF84E00E948809882341
:1032500009F448C02D9884E80E9488098823E1F089
:103260000E94580988EC90E00E945A092F9882E049
:1032700090E00E94C6268F3F29F06FEF82E090E039
:103280000E94CE2684EF91E00E945A092F9A84E88A
:103290000E9488098111FBCF84E10E94880988235C
:1032A000E1F00E94580988EC90E00E945A092E989B
:1032B00082E090E00E94C626882329F060E082E048
:1032C00090E00E94CE2684EF91E00E945A092E9A47
:1032D00084E10E9488098111FBCF88EC90E00E9474
:1032E0005A09B2CF0E94580982E090E00E941F1153
:1032F000882309F481C03E9A3F9A81E090E00E94C1
:103300001F1181FF14C0582F5470352E82FD2E9846
:1033100001EF1FEFE8E0AE2EB12C80E40E94880997
:10332000882309F46CC02E9A2F9A0E94580982E3D0
:1033300090E00E945A090E9475098111F8CF5E9AA7
:10334000E4E1F0E08BEA9FEF2591359155914591AD
:103350002851354909F4CA018093C1039093C203EF
:1033600059988BEA0E945109599A8CE295E1A0E0A4
:103370008093C3039093C403A093C5031092C60324
:103380006CE275E180E00E9478070E943B07809321
:10339000C7030E944C078093C80310921201109239
:1033A00011018FEF9FE79093140180931301198A05
:1033B000188A80EF99E09A83898329E030E0AE0192
:1033C00047565F4F68E77BE480E00E943909C356A7
:1033D000DF4F9881CD59D040C756DF4F8881C959FA
:1033E000D040FE01E457FF4FDF012A2F2E1B291783
:1033F00008F0D2C08D93F9CF3E983F987ECF33200E
:1034000029F00430110511F42E9A2F9881E00E94C2
:103410007604980117FF04C022273327201B310BA5
:1034200027703327C80117FD079673E09595879598
:103430007A95E1F717FF05C00197F501E21BF30B41
:103440009F01AC015695542F4427579547954951F4
:103450005C4FF12CE12C2501421A530A8E3FFFEFFD
:103460009F0709F447C0DA0170E060E0F701E1521C
:10347000FF4F4F013A01F0E86F0E711C8F3F980724
:1034800081F0F401E60FF71FE491022E01C0EE0F68
:103490000A94EAF75496FC915497EF2B5496EC93C8
:1034A000549721153105F9F0F401E60FF71F249028
:1034B0006301C60ED71EE22DF0E0042C02C0F59584
:1034C000E7950A94E2F7CE55DF4FF983E883C25AB5
:1034D000D040F6012488CE55DF4FF881C25AD04043
:1034E0002F2AF601248A6F5F7F4F11966835710588
:1034F00009F0C4CF0196F8E5EF0EF11C40585F4F7C
:1035000060EBE616F10409F0A9CF0E9493098FE061
:1035100090E00E945A090F5F1F4F0931110509F011
:10352000FCCE332011F02F9A2D9880E991E00E9473
:103530005A090E94580981E090E00E941F1180FF03
:10354000F6CE8AE090E00E941F119FEF980F9E3FF9
:1035500008F0EDCE22E330E03093CC032093CB0390
:1035600028E330E03093CA032093C9030BE010E056
:10357000682F80EF99E00E94B409C8010E941F11D2
:103580000F5F1F4F0131110599F70E94930988EED3
:1035900093E00E945A09CBCECF55DF4F8881C15AA4
:1035A000D040828780EFC82E89E0D82ED486C3868B
:1035B0008DE0DE01159601900D928A95E1F79AEE65
:1035C000A92E98E0B92EBB8AAA8A2DECE22E23E020
:1035D000F22EFF8EEE8E87E398E09D8B8C8B1F8AF8
:1035E0001E8A198E188E84E090E09AA389A302E0C7
:1035F00010E01CA30BA341E060E0CE0101960E9405
:10360000E3168BE8FE013196A6E5B8E001900D9235
:103610008A95E1F7CE0101960E94F30A8CE4FE013F
:103620003196A4EAB9E001900D928A95E1F71093E2
:10363000CE030093CD03109200013EE4832E39E0C7
:10364000932ED0924F09C0924E09F0925109E09208
:10365000500904EA19E0109353090093520910929B
:103660009C09CE0143960E94060BDA82C9821A8712
:1036700009879C868B86FE86ED86A3961FAEA39750
:1036800084E6FE013196D50101900D928A95E1F70D
:103690009092E5088092E4081093E7080093E6080A
:1036A000B092E908A092E8088FEF80935508CD55B5
:1036B000DF4F0FB6F894DEBF0FBECDBFDF91CF91C5
:1036C0001F910F91FF90EF90DF90CF90BF90AF9040
:1036D0009F908F907F906F905F904F903F902F9032
:1036E0000895EF92FF920F931F93CF93DF93CDB77F
:1036F000DEB72B970FB6F894DEBF0FBECDBF9A830F
:103700008983EB82FC820D831E832F833887498750
:103710005A876B8789819A81FC01868D833009F4F1
:103720006EC089819A81FC01868D8F5F282F8981E7
:103730009A81FC01268F89819A81FC01868D082E51
:10374000000C990B2E813F814885E981FA81BC01EB
:10375000660F771F660F771F660F771F681B790B41
:103760006E0F7F1F6E5F7F4FFB011082E981FA8130
:10377000BC01660F771F660F771F660F771F681BE8
:10378000790B6E0F7F1F6D5F7F4F52E2FB015083FD
:10379000E981FA81BC01660F771F660F771F660FFC
:1037A000771F681B790B6E0F7F1F6C5F7F4F58E789
:1037B000FB015083E981FA81BC01660F771F660F18
:1037C000771F660F771F681B790B6E0F7F1F6B5F6C
:1037D0007F4F5EE1FB015083E981FA81BC01660FF6
:1037E000771F660F771F660F771F681B790BCF0156
:1037F000860F971F0696FC012083318342832B9608
:103800000FB6F894DEBF0FBECDBFDF91CF911F91F1
:103810000F91FF90EF900895EF92FF920F931F93F7
:10382000CF93DF93CDB7DEB760970FB6F894DEBFC6
:103830000FBECDBF988B8F8788E00E947D098823BB
:1038400009F48BC08F85988921E030E0FC0135A315
:1038500024A38F859889FC0180A191A19A838983F3
:103860008F859889FC0182A193A19C838B838F858E
:103870009889FC018281938181309105F1F0823039
:1038800091051CF4892B39F01DC08230910549F057
:10389000039769F017C08B819C8101979C838B8370
:1038A00011C08B819C8101969C838B830BC0898185
:1038B0009A8101979A83898305C089819A810196AB
:1038C0009A8389831D828D81863008F046C08D8160
:1038D000282F30E04F855889C901880F991F880F1C
:1038E000991F880F991F820F931F840F951F8B5A62
:1038F0009F4F29E0FC01DE01169601900D922A955A
:10390000E1F78E81882F90E029813A8128173907C5
:1039100001F58F81882F90E02B813C812817390792
:10392000C1F48F85988922E030E0FC0135A324A3FF
:103930008F859889FC0183899489EE80FF800885B2
:1039400019852A853B854C855D856E850E94711B96
:1039500004C08D818F5F8D83B6CF60960FB6F894CB
:10396000DEBF0FBECDBFDF91CF911F910F91FF90B2
:10397000EF900895CF93DF93CDB7DEB729970FB6B9
:10398000F894DEBF0FBECDBF99878887888599855B
:10399000FC01868D882314F480E037C088859985E2
:1039A000FC01868D282F880F330B48855985C90166
:1039B000880F991F880F991F880F991F821B930BDF
:1039C000840F951F029627E0FC01CE010196DC01D1
:1039D00001900D922A95E1F7CE0101960E948E0A80
:1039E0008A81882F90E09C012D5F3F4F8981882F2D
:1039F00090E00396B9010E9485048D819E81AF817C
:103A0000BC018A2F0E941F0981E029960FB6F89405
:103A1000DEBF0FBECDBFDF91CF910895CF93DF936F
:103A200000D0CDB7DEB79A83898389819A810E94BD
:103A3000D20B89819A810E94210B89819A810E94EF
:103A40003D0B89819A81FC01838D882341F0898116
:103A50009A810E94FB14882311F081E001C080E06C
:103A6000882329F089819A810E941E1821C08981AA
:103A70009A81FC01838994890E94BA1C982F81E065
:103A80008927882349F089819A810E940C1C8981A9
:103A90009A810E94BE150CC088E00E947D0988238F
:103AA00039F089819A81FC01838994890E94660C8E
:103AB0000F900F90DF91CF910895CF93DF9300D0B7
:103AC00000D01F92CDB7DEB79D838C836EE270E08D
:103AD00086E090E00E9485048C819D81FC018085B8
:103AE000482F6AED7FE480E00E945E07A82FCB019B
:103AF00089839A83AB8389819A81AB81BC018A2FA8
:103B00000E941F096EE270E080E490E00E9485044C
:103B10008C819D81FC018185482F6AED7FE480E0E6
:103B20000E945E07A82FCB0189839A83AB8389818A
:103B30009A81AB81BC018A2F0E941F0967E370E064
:103B400086E090E00E9485048C819D81FC01828545
:103B5000482F6AED7FE480E00E945E07A82FCB012A
:103B600089839A83AB8389819A81AB81BC018A2F37
:103B70000E941F0967E370E080E490E00E948504E2
:103B80008C819D81FC018385482F6AED7FE480E074
:103B90000E945E07A82FCB0189839A83AB8389811A
:103BA0009A81AB81BC018A2F0E941F090E94750A6D
:103BB0008C819D81825B9F4FFC018081082E000CCF
:103BC000990B2C813D81820F931F0896FC01208167
:103BD0008C819D81FC0180819181622F0E94C110A6
:103BE0000F900F900F900F900F90DF91CF9108954D
:103BF000EF920F93CF93DF93CDB7DEB766970FB6F3
:103C0000F894DEBF0FBECDBF9E8B8D8B67E370E057
:103C100080E090E00E94CE068D899E89FC01808123
:103C200091819C0181E192E0BC01C9010E94D7060B
:103C300067E370E08AE090E00E9485048D899E89A8
:103C4000825B9F4FFC01808195E88902912D1124B0
:103C5000980F292F2595259525952595982F990F0E
:103C6000990B291B9FE1299F902D1124282F291B97
:103C70008D899E89825B9F4FFC0120838D899E895F
:103C8000825B9F4FFC018081482F6BED7CE480E0DC
:103C90000E945E07A82FCB0189839A83AB83898119
:103CA0009A81AB81BC018A2F0E941F098D899E8950
:103CB000825B9F4FFC018081EE24E394082F24E275
:103CC00031E040E060E070E080E090E00E94840736
:103CD0008D899E89825B9F4FFC018081282F880FF0
:103CE000330BC901880F991F880F991F880F991FDF
:103CF000821B930B880F991FCC01A0E0855C924B2F
:103D0000AF4F8C839D83AE839E01295F3F4F8C8193
:103D10009D81AE81A901BC018A2F0E94F90C60E04F
:103D200070E083E290E00E94CE068D899E89FC01BE
:103D3000808191819C018CE092E0BC01C9010E94CC
:103D4000D7068D899E89FC01808191812F854AE06B
:103D500050E0622F0E949B106AE070E083E290E0E6
:103D60000E94CE068D899E89FC01808191819C01F3
:103D700087E092E0BC01C9010E94D7068D899E8927
:103D8000FC01808191812B854AE050E0622F0E94E6
:103D90009B1064E170E083E290E00E94CE068D8982
:103DA0009E89FC01808191819C0182E092E0BC01AE
:103DB000C9010E94D7068D899E89FC01808191816D
:103DC0002C854AE050E0622F0E949B1060E070E07A
:103DD00086E490E00E94CE068D899E89FC01808158
:103DE00091819C018CEF91E0BC01C9010E94D70632
:103DF0008D899E89FC01808191812D854AE050E06A
:103E0000622F0E949B106AE070E086E490E00E94BE
:103E1000CE068D899E89FC01808191819C0186EF6F
:103E200091E0BC01C9010E94D7068D899E89FC01E1
:103E3000808191812E854AE050E0622F0E949B1084
:103E400064E170E086E490E00E94CE068D899E8950
:103E5000FC01808191819C0180EF91E0BC01C9014E
:103E60000E94D7068D899E89FC01808191812889D5
:103E70004AE050E0622F0E949B1063E270E080E015
:103E800090E00E94CE068D899E89FC0120813181BF
:103E90008885882F90E0B9010E946D0C6DE270E07A
:103EA00080E090E00E94CE068D899E89FC012081F1
:103EB00031818985882F90E0B9010E946D0C88E0DE
:103EC0000E947D0966960FB6F894DEBF0FBECDBF87
:103ED000DF91CF910F91EF9008952F923F924F92E3
:103EE0005F926F927F928F929F92AF92BF92CF928A
:103EF000DF92EF92FF920F931F93CF93DF93EC012A
:103F0000EA80FB80F70180819181029709F057C018
:103F100080E10E947D098E01025B1F4FF801D08075
:103F2000882309F443C0D394D082F801808187FDAF
:103F30001082F8018081803214F08FE18083F701D4
:103F4000008111810130110591F488E00E947D0902
:103F5000882309F421C12E813F812130310509F4E4
:103F6000B9C008F479C02330310509F4F3C0F70172
:103F7000808191818130910509F41BC108F454C1FD
:103F8000029709F4C4C2DF91CF911F910F91FF9066
:103F9000EF90DF90CF90BF90AF909F908F907F90E9
:103FA0006F905F904F903F902F90089580E80E940F
:103FB0007D09882309F4B9CFDA94F801B5CF8E8151
:103FC0009F810397B9F480E10E947D09882331F035
:103FD000FE01E25BFF4F80818E5FB0CF80E80E94E0
:103FE0007D09882309F4ABCFFE01E25BFF4F80819E
:103FF0008250A4CF80E20E947D098E01025B1F4F98
:10400000F801D0808823B9F0DA94D08280E10E9450
:104010007D09F801D0808823B1F0D394D394D08265
:10402000F801808184300CF01082F801808187FFD4
:1040300086CF83E083CF80E40E947D09882331F31B
:10404000D394F801E2CF80E80E947D09882341F3F0
:10405000DA94DA94F801E3CFDE01A25BBF4F8C91D2
:104060008130F1F024F48823C1F01C9280CF82309B
:1040700061F18330D1F78885803221F181E0FE0142
:10408000E15BFF4F808383E090E0319693838283EE
:1040900082E090E09183808313C01F830E83E5CF7D
:1040A00022E030E03F832E839885903259F0FE0164
:1040B000E15BFF4F808331963383228331832083FA
:1040C000349610821F821E82D0CF83E090E09F83BF
:1040D0008E83CBCFDE01A25BBF4F8C91813011F17B
:1040E0005CF4882379F0FE01E80FF11D87FDFA9555
:1040F0008085803239F73BCF823019F1833099F7D0
:104100009B8520C09885903271F391E0FE01E15BC0
:10411000FF4F90833196138212823183208334962D
:104120001082E1CF99859032F1F2FE01E15BFF4F01
:104130008083319613821282318320833496808368
:10414000D2CF9A85903279F291E0FE01E15BFF4F88
:104150009083EFCFDE01A25BBF4F8C91882329F0C3
:10416000823009F0AFCF8D8501C08C85FE01E80F4C
:10417000F11D9085903209F4A5CF91E0FE01E15B3D
:10418000FF4F908331961383028322E030E0318326
:1041900020833496808396CF84E00E947D09882313
:1041A00041F08E819F810197039718F41F821E8230
:1041B000DECE82E08093C60310E000E021E040E222
:1041C0006BE270E0C8010E94200A0F5F1F4F0038A9
:1041D0001105A1F725E14DE76CE270E081E090E088
:1041E0000E94450A8E819F819E01225B3F4F2901DB
:1041F0008130910509F45FC00881198181309105F2
:10420000B8F0039709F45BC0F2018081813009F4B2
:1042100070C10CF057C1882309F460C16BE372E0F0
:10422000888199810E94D70682E08093C603ABCE35
:1042300076E0C72ED12CD092CC03C092CB03EEE215
:10424000AE2EB12CB092CA03A092C90360E572E011
:10425000C8010E94D706F0E4EF2EF12CF092CC03B7
:10426000E092CB03B092CA03A092C9036BE472E060
:10427000888199810E94D706D092CC03C092CB034B
:1042800007E310E01093CA030093C90364E472E0EB
:10429000888199810E94D706F092CC03E092CB03EB
:1042A0001093CA030093C9036DE372E0888199817A
:1042B0000E94D706A9CFCE010E945D1DA5CF6C80BC
:1042C0007D80F9013080C32C032C000CDD08F12C1B
:1042D000E12C21E042E470E060E0C7010E94200A86
:1042E000FFEFEF1AFF0A20E8E216F10491F72BE244
:1042F0004CE761E070E082E090E00E94450A84E0D3
:10430000A82EB12CB092CC03A092CB0393E0892EBF
:10431000912C9092CA038092C90366E372E0C801AF
:104320000E94D70621E1222E2C9C70012D9CF00CBE
:104330001124E60CF71C4AE050E0F7016585C8013E
:104340000E949B103CE3C32ED12CD092CC03C09290
:10435000CB039092CA038092C9036FE272E0C80156
:104360000E94D706F7016385C8010E94AB10B09286
:10437000CC03A092CB034BE0842E912C9092CA03E5
:104380008092C90369E272E0C8010E94D7064AE040
:1043900050E0F7016485C8010E949B10D092CC03C5
:1043A000C092CB039092CA038092C90362E272E08A
:1043B000C8010E94D706F7016685C8010E94AB10AC
:1043C000B092CC03A092CB0353E1A52EB12CB092B6
:1043D000CA03A092C9036BE172E0C8010E94D7062C
:1043E0004AE050E0F7016785C8010E949B10D09217
:1043F000CC03C092CB03B092CA03A092C90363E17D
:1044000072E0C8010E94D706F7016089C8010E94C6
:10441000AB10F32D222DF2021001112410E000E068
:104420006CE3F62EF801E20DF31DE60DF71D438156
:104430004032E1F0802F81708F9DC00111240496DD
:1044400090930E0180930D01802F869538E0839F15
:10445000C00111244B969093100180930F016AEDD7
:104460007FE480E00E945E070E941F090F5F1F4FDC
:1044700004301105B9F606E010E010930E01009328
:104480000D018DE290E09093100180930F014C8517
:104490006BED7CE480E00E945E070E941F09109390
:1044A0000E0100930D0187E390E09093100180933B
:1044B0000F014D856BED7CE480E00E945E070E9459
:1044C0001F09A2CE8230E1F0833009F0A7CE8AE343
:1044D00090E09093CC038093CB0316C01092CC0352
:1044E0001092CB038DE290E09093CA038093C903AE
:1044F00095CE8AE390E09093CC038093CB03F2CFE8
:104500001092CC031092CB0387E390E0EDCF81E0D3
:1045100080930001CE01DF91CF911F910F91FF9009
:10452000EF90DF90CF90BF90AF909F908F907F9053
:104530006F905F904F903F902F900C94F81DEF92EA
:10454000FF920F931F93CF93DF93F82E192FE62E30
:10455000042F81E0860F880F0E943C0683E00E94B2
:104560003C06CF2DD12FEC0EFD2EF11CCE15DF0514
:10457000B9F007FF13C0FE0184910E943C06182F7A
:1045800080E00E943C06812321968111EFCFDF91CC
:10459000CF911F910F91FF90EF9008958881EDCFFB
:1045A00081E0F5CFE7EEF7E01382128288EE93E028
:1045B000A0E0B0E084839583A683B78386E291E090
:1045C000918380838FEF9FEF95878487E0EFF9E0F9
:1045D0001382128288E391E09183808384EA99E0D8
:1045E0000E94F30A8CEF98E00E94060B1092660876
:1045F000109265088FEF809355080895CDB7DEB708
:10460000A197DEBFCDBF789483E084BD83E085BDF4
:1046100081E080936E00E1E8F0E083E08083E0E8F1
:1046200081E08083E1E983E08083E0E981E08083C9
:10463000E1EC87E08083E3EC81E08083E0EC82E0E2
:104640008083E2EC81E08083EAE787E08083806812
:1046500080831092E4031092D4031092D6038091C9
:10466000D70081608093D70080EA8093D80089B515
:10467000806189BD89B5826089BD09B400FEFDCF26
:104680000E94BE048091D8008F7C80618093D80006
:104690008091E000807F8093E0008091E1008E7E39
:1046A0008093E1008DE08093E200559A209A0E9469
:1046B000B3180E94C30A8823C9F05E9881E00E9463
:1046C00076045E9A8091E6038093E5030E94750963
:1046D0008093E6038091CD039091CE0381309105C4
:1046E00061F008F41BC1029709F41DC180E090E05D
:1046F000892BF9F20E940000DCCF80913209909161
:104700003309892B89F48091340990913509892BDB
:1047100059F48091360990913709892B29F40E9428
:10472000FB0610924B09E2CF80913809909139092C
:10473000892B61F480913A0990913B09892B31F4DE
:1047400080913C0990913D09892B49F3E091F8084B
:10475000F091F908EE24E394008124E231E040E096
:1047600070E060E080E690E00E94840711E0109322
:10477000000186E490E09093CC038093CB03A3E206
:10478000B0E0B093CA03A093C9036EE577E08091CF
:10479000EA089091EB080E94D706E0913F09F0E00B
:1047A000EE0FFF1FEE5CF64F4081518170E060E03C
:1047B0002AE08091EA089091EB080E944F106CE586
:1047C00077E08091EA089091EB080E94D706E0918B
:1047D000F808F091F908458550E070E060E02AE0C3
:1047E0008091EA089091EB080E944F1001E024E2CA
:1047F00031E040E070E060E090E080E00E948407FB
:1048000010930001E2E0F0E0F093CC03E093CB03DF
:1048100083E290E09093CA038093C90367E577E051
:104820008091EA089091EB080E94D706E091400938
:10483000F0E0EE0FFF1FE85CF64F4081518170E021
:1048400060E02AE08091EA089091EB080E944F1006
:1048500065E577E08091EA089091EB080E94D70621
:10486000E091FA08F091FB08458550E070E060E0C7
:104870002AE08091EA089091EB080E944F10109274
:1048800000018091F4089091F5080E946D1F8091BD
:10489000F4089091F508FC01E15BFF4F2081222391
:1048A00009F424CF108231962081318132964081E3
:1048B0005181509344094093430920934109309317
:1048C00042098C5A9F4FDC018C91809345091092CC
:1048D000490910924809E1E0F0E0F0934709E093BC
:1048E000460910934A098FEF820F18161CF40E9494
:1048F000920FFCCE882319F00E94CB0FF7CEA09127
:10490000F808B091F908E091FA08F091FB081E96BA
:104910008C919685891B87FFEACFEECF86E598E0DC
:104920000E940E1DE3CE8091E208882309F491C015
:104930001092E2080091E8081091E9081F86188A91
:10494000198A1A8A1B8A1C8A1D8A1E8A81E090E0B5
:10495000A0E0B0E08F8B988FA98FBA8F40E06CEC0D
:104960007BE480E00E945E072CE030E0AE01415F16
:104970005F4F0E943909780192E1E90EF11CF801BC
:10498000EB5BFF4F85E0808331968B899C89AD89F5
:10499000BE8944E1B695A795979587954A95D1F735
:1049A0008F71808331968F89988DA98DBA8D54E14E
:1049B000B695A795979587955A95D1F78F7180836E
:1049C0004F85588969897A89C7010E94170D4B89DB
:1049D0005C896D897E89C80183960E94170D4F8975
:1049E000588D698D7A8DC801C4960E94170DF80103
:1049F000EA5AFF4F1082D8015196FC92EE925097DE
:104A000038975F968C915F9790E091838083329680
:104A1000D0968C91D09790E0918380833296AF5B53
:104A2000BF4F8C9190E091838083F8016085718500
:104A3000C8010E94AF0CD8011C96ED91FC9181E059
:104A400090E091838083F801EF59FF4F80831092AB
:104A500000018091E108833008F048CE8091E4089D
:104A60009091E5080E946D1F0091E4081091E508FF
:104A700088E00E947D098823E9F1F801E25BFF4F9D
:104A8000608167FD37C07090E1088090E6089090E3
:104A9000E7089EE06902B001112480E0655C724B7A
:104AA0008F4FAE01415F5F4F0E94F90CFE013F96B0
:104AB000DE0111968EE001900D928A95E1F7A980B2
:104AC000BA80CB80DC80ED80FE800F81188529853F
:104AD0003A854B855C856D857E85C401A1E17A9E12
:104AE000800D911D11240E948C0D8091E1088F5F33
:104AF0008093E1081D8E8091E108BD8DB81708F004
:104B0000F5CDEAE0BE9F700111242701F4E64F0EB7
:104B1000511C41E06AE370E0C2010E94960941E045
:104B200064E370E0C2010E94960941E067E370E02F
:104B3000C70189599F4F0E94960941E067E370E0E1
:104B4000C7018F599F4F0E94960981E090E09F8F87
:104B50008E8F312C212C03E010E0AAEFBFEFB9A318
:104B6000A8A33EEFC32EDD24DA94FFEF2F1A3F0AED
:104B70008E8D9F8D02969F8F8E8FC80ED91E31010C
:104B800094E6690E711C6E0C7F1C41E04801A7E39E
:104B90008A0E911CB401C3010E94960984E6A82ED6
:104BA000B12CA218B308AE0CBF1C41E0B401C50182
:104BB0000E94960941E097E3892E912C801A910A70
:104BC000B401C3010E94960941E0B401C5010E94ED
:104BD00096095101B7E3AB0EB11C41E0B5014201AA
:104BE000800E911EC4010E94960941E0B501520158
:104BF000A01AB10AC5010E94960927E3622E712C02
:104C00006218730841E0B301C4010E94960941E0B3
:104C1000B301C5010E9496092016310624F0ED8DDE
:104C2000EF5FED8F68CFBFEFCB16DB0609F49DCFAA
:104C300001501109E8A1F9A13296F9A3E8A3CE0E1B
:104C4000DF1E93CF8F929F92AF92BF92CF92DF924F
:104C5000EF92FF92CF93DF93EC01688179818A8193
:104C60009B81611571058105910521F464E279ED5F
:104C70008BE597E02DE133EF41E050E00E94DC2628
:104C800049015A019B01AC01A7EAB1E40E94FB264D
:104C90006B017C01ACEEB4EFA50194010E940927E1
:104CA000C60ED71EE81EF91EF7FE06C081E0C81A20
:104CB000D108E10880E8F80AC882D982EA82FB823A
:104CC000C701B6019F77DF91CF91FF90EF90DF9002
:104CD000CF90BF90AF909F908F9008958F929F92AA
:104CE000AF92BF92CF92DF92EF92FF926091150147
:104CF000709116018091170190911801611571054D
:104D00008105910521F464E279ED8BE597E02DE1D1
:104D100033EF41E050E00E94DC2649015A019B013B
:104D2000AC01A7EAB1E40E94FB266B017C01ACEE6A
:104D3000B4EFA50194010E940927C60ED71EE81EF4
:104D4000F91EF7FE06C081E0C81AD108E10880E824
:104D5000F80AC0921501D0921601E0921701F09264
:104D60001801C701B6019F77FF90EF90DF90CF90B9
:104D7000BF90AF909F908F900895609315017093AE
:104D8000160180931701909318010895F999FECFA9
:104D900092BD81BDF89A992780B50895262FF9997B
:104DA000FECF1FBA92BD81BD20BD0FB6F894FA9A0E
:104DB000F99A0FBE01960895052E97FB1EF40094F4
:104DC0000E94F32657FD07D00E940E2707FC03D050
:104DD0004EF40C94F32650954095309521953F4F15
:104DE0004F4F5F4F089590958095709561957F4FD7
:104DF0008F4F9F4F08950E943027A59F900DB49F1D
:104E0000900DA49F800D911D11240895B7FF0C945F
:104E1000FB260E94FB26821B930B0895A1E21A2E0B
:104E2000AA1BBB1BFD010DC0AA1FBB1FEE1FFF1F4E
:104E3000A217B307E407F50720F0A21BB30BE40B9E
:104E4000F50B661F771F881F991F1A9469F76095E5
:104E50007095809590959B01AC01BD01CF0108959F
:104E6000A29FB001B39FC001A39F700D811D1124AB
:104E7000911DB29F700D811D1124911D0895DB01BC
:104E8000582F0E943027529F800DA49F800D11241F
:104E9000089597FB072E16F4009407D077FD09D0EC
:104EA0000E94632707FC05D03EF4909581959F4FA3
:104EB0000895709561957F4F0895EE0FFF1F05903F
:104EC000F491E02D0994AA1BBB1B51E107C0AA1F56
:104ED000BB1FA617B70710F0A61BB70B881F991F9B
:104EE0005A95A9F780959095BC01CD010895F89445
:024EF000FFCFF2
:104EF20001FFFFFFFF00E1000000000000000000D2
:104F0200000000800001000000402000C1808100FC
:104F1200000000000000BB053A05DC05D1052206B1
:104F2200E005FE0500000000B4090E07D00DCF0D0C
:0A4F32002075736564000D0A00008D
:00000001FF
